{
	"array.sol": {
		"SimpleStorage": {
			"abi": [
				{
					"inputs": [
						{
							"internalType": "string",
							"name": "_name",
							"type": "string"
						},
						{
							"internalType": "uint256",
							"name": "_favNo",
							"type": "uint256"
						}
					],
					"name": "addPerson",
					"outputs": [],
					"stateMutability": "nonpayable",
					"type": "function"
				},
				{
					"inputs": [],
					"name": "favNo",
					"outputs": [
						{
							"internalType": "uint256",
							"name": "",
							"type": "uint256"
						}
					],
					"stateMutability": "view",
					"type": "function"
				},
				{
					"inputs": [
						{
							"internalType": "uint256",
							"name": "",
							"type": "uint256"
						}
					],
					"name": "people",
					"outputs": [
						{
							"internalType": "uint256",
							"name": "favNo",
							"type": "uint256"
						},
						{
							"internalType": "string",
							"name": "name",
							"type": "string"
						}
					],
					"stateMutability": "view",
					"type": "function"
				}
			],
			"devdoc": {
				"kind": "dev",
				"methods": {},
				"version": 1
			},
			"evm": {
				"assembly": "    /* \"array.sol\":58:380  contract SimpleStorage {... */\n  mstore(0x40, 0x80)\n  callvalue\n  dup1\n  iszero\n  tag_1\n  jumpi\n  0x00\n  dup1\n  revert\ntag_1:\n  pop\n  dataSize(sub_0)\n  dup1\n  dataOffset(sub_0)\n  0x00\n  codecopy\n  0x00\n  return\nstop\n\nsub_0: assembly {\n        /* \"array.sol\":58:380  contract SimpleStorage {... */\n      mstore(0x40, 0x80)\n      callvalue\n      dup1\n      iszero\n      tag_1\n      jumpi\n      0x00\n      dup1\n      revert\n    tag_1:\n      pop\n      jumpi(tag_2, lt(calldatasize, 0x04))\n      shr(0xe0, calldataload(0x00))\n      dup1\n      0x6f760f41\n      eq\n      tag_3\n      jumpi\n      dup1\n      0x9e7a13ad\n      eq\n      tag_4\n      jumpi\n      dup1\n      0xbae9c9a8\n      eq\n      tag_5\n      jumpi\n    tag_2:\n      0x00\n      dup1\n      revert\n        /* \"array.sol\":262:377  function addPerson(string memory _name, uint256 _favNo) public {... */\n    tag_3:\n      tag_6\n      0x04\n      dup1\n      calldatasize\n      sub\n      dup2\n      add\n      swap1\n      tag_7\n      swap2\n      swap1\n      tag_8\n      jump\t// in\n    tag_7:\n      tag_9\n      jump\t// in\n    tag_6:\n      stop\n        /* \"array.sol\":232:255  People[] public  people */\n    tag_4:\n      tag_10\n      0x04\n      dup1\n      calldatasize\n      sub\n      dup2\n      add\n      swap1\n      tag_11\n      swap2\n      swap1\n      tag_12\n      jump\t// in\n    tag_11:\n      tag_13\n      jump\t// in\n    tag_10:\n      mload(0x40)\n      tag_14\n      swap3\n      swap2\n      swap1\n      tag_15\n      jump\t// in\n    tag_14:\n      mload(0x40)\n      dup1\n      swap2\n      sub\n      swap1\n      return\n        /* \"array.sol\":88:109  uint256 public  favNo */\n    tag_5:\n      tag_16\n      tag_17\n      jump\t// in\n    tag_16:\n      mload(0x40)\n      tag_18\n      swap2\n      swap1\n      tag_19\n      jump\t// in\n    tag_18:\n      mload(0x40)\n      dup1\n      swap2\n      sub\n      swap1\n      return\n        /* \"array.sol\":262:377  function addPerson(string memory _name, uint256 _favNo) public {... */\n    tag_9:\n        /* \"array.sol\":336:342  people */\n      0x01\n        /* \"array.sol\":348:368  People(_favNo,_name) */\n      mload(0x40)\n      dup1\n      0x40\n      add\n      0x40\n      mstore\n      dup1\n        /* \"array.sol\":355:361  _favNo */\n      dup4\n        /* \"array.sol\":348:368  People(_favNo,_name) */\n      dup2\n      mstore\n      0x20\n      add\n        /* \"array.sol\":362:367  _name */\n      dup5\n        /* \"array.sol\":348:368  People(_favNo,_name) */\n      dup2\n      mstore\n      pop\n        /* \"array.sol\":336:369  people.push(People(_favNo,_name)) */\n      swap1\n      dup1\n      0x01\n      dup2\n      sload\n      add\n      dup1\n      dup3\n      sstore\n      dup1\n      swap2\n      pop\n      pop\n      0x01\n      swap1\n      sub\n      swap1\n      0x00\n      mstore\n      keccak256(0x00, 0x20)\n      swap1\n      0x02\n      mul\n      add\n      0x00\n      swap1\n      swap2\n      swap1\n      swap2\n      swap1\n      swap2\n      pop\n      0x00\n      dup3\n      add\n      mload\n      dup2\n      0x00\n      add\n      sstore\n      0x20\n      dup3\n      add\n      mload\n      dup2\n      0x01\n      add\n      swap1\n      dup2\n      tag_22\n      swap2\n      swap1\n      tag_23\n      jump\t// in\n    tag_22:\n      pop\n      pop\n      pop\n        /* \"array.sol\":262:377  function addPerson(string memory _name, uint256 _favNo) public {... */\n      pop\n      pop\n      jump\t// out\n        /* \"array.sol\":232:255  People[] public  people */\n    tag_13:\n      0x01\n      dup2\n      dup2\n      sload\n      dup2\n      lt\n      tag_24\n      jumpi\n      0x00\n      dup1\n      revert\n    tag_24:\n      swap1\n      0x00\n      mstore\n      keccak256(0x00, 0x20)\n      swap1\n      0x02\n      mul\n      add\n      0x00\n      swap2\n      pop\n      swap1\n      pop\n      dup1\n      0x00\n      add\n      sload\n      swap1\n      dup1\n      0x01\n      add\n      dup1\n      sload\n      tag_26\n      swap1\n      tag_27\n      jump\t// in\n    tag_26:\n      dup1\n      0x1f\n      add\n      0x20\n      dup1\n      swap2\n      div\n      mul\n      0x20\n      add\n      mload(0x40)\n      swap1\n      dup2\n      add\n      0x40\n      mstore\n      dup1\n      swap3\n      swap2\n      swap1\n      dup2\n      dup2\n      mstore\n      0x20\n      add\n      dup3\n      dup1\n      sload\n      tag_28\n      swap1\n      tag_27\n      jump\t// in\n    tag_28:\n      dup1\n      iszero\n      tag_29\n      jumpi\n      dup1\n      0x1f\n      lt\n      tag_30\n      jumpi\n      0x0100\n      dup1\n      dup4\n      sload\n      div\n      mul\n      dup4\n      mstore\n      swap2\n      0x20\n      add\n      swap2\n      jump(tag_29)\n    tag_30:\n      dup3\n      add\n      swap2\n      swap1\n      0x00\n      mstore\n      keccak256(0x00, 0x20)\n      swap1\n    tag_31:\n      dup2\n      sload\n      dup2\n      mstore\n      swap1\n      0x01\n      add\n      swap1\n      0x20\n      add\n      dup1\n      dup4\n      gt\n      tag_31\n      jumpi\n      dup3\n      swap1\n      sub\n      0x1f\n      and\n      dup3\n      add\n      swap2\n    tag_29:\n      pop\n      pop\n      pop\n      pop\n      pop\n      swap1\n      pop\n      dup3\n      jump\t// out\n        /* \"array.sol\":88:109  uint256 public  favNo */\n    tag_17:\n      sload(0x00)\n      dup2\n      jump\t// out\n        /* \"#utility.yul\":7:82   */\n    tag_32:\n        /* \"#utility.yul\":40:46   */\n      0x00\n        /* \"#utility.yul\":73:75   */\n      0x40\n        /* \"#utility.yul\":67:76   */\n      mload\n        /* \"#utility.yul\":57:76   */\n      swap1\n      pop\n        /* \"#utility.yul\":7:82   */\n      swap1\n      jump\t// out\n        /* \"#utility.yul\":88:205   */\n    tag_33:\n        /* \"#utility.yul\":197:198   */\n      0x00\n        /* \"#utility.yul\":194:195   */\n      dup1\n        /* \"#utility.yul\":187:199   */\n      revert\n        /* \"#utility.yul\":211:328   */\n    tag_34:\n        /* \"#utility.yul\":320:321   */\n      0x00\n        /* \"#utility.yul\":317:318   */\n      dup1\n        /* \"#utility.yul\":310:322   */\n      revert\n        /* \"#utility.yul\":334:451   */\n    tag_35:\n        /* \"#utility.yul\":443:444   */\n      0x00\n        /* \"#utility.yul\":440:441   */\n      dup1\n        /* \"#utility.yul\":433:445   */\n      revert\n        /* \"#utility.yul\":457:574   */\n    tag_36:\n        /* \"#utility.yul\":566:567   */\n      0x00\n        /* \"#utility.yul\":563:564   */\n      dup1\n        /* \"#utility.yul\":556:568   */\n      revert\n        /* \"#utility.yul\":580:682   */\n    tag_37:\n        /* \"#utility.yul\":621:627   */\n      0x00\n        /* \"#utility.yul\":672:674   */\n      0x1f\n        /* \"#utility.yul\":668:675   */\n      not\n        /* \"#utility.yul\":663:665   */\n      0x1f\n        /* \"#utility.yul\":656:661   */\n      dup4\n        /* \"#utility.yul\":652:666   */\n      add\n        /* \"#utility.yul\":648:676   */\n      and\n        /* \"#utility.yul\":638:676   */\n      swap1\n      pop\n        /* \"#utility.yul\":580:682   */\n      swap2\n      swap1\n      pop\n      jump\t// out\n        /* \"#utility.yul\":688:868   */\n    tag_38:\n        /* \"#utility.yul\":736:813   */\n      0x4e487b7100000000000000000000000000000000000000000000000000000000\n        /* \"#utility.yul\":733:734   */\n      0x00\n        /* \"#utility.yul\":726:814   */\n      mstore\n        /* \"#utility.yul\":833:837   */\n      0x41\n        /* \"#utility.yul\":830:831   */\n      0x04\n        /* \"#utility.yul\":823:838   */\n      mstore\n        /* \"#utility.yul\":857:861   */\n      0x24\n        /* \"#utility.yul\":854:855   */\n      0x00\n        /* \"#utility.yul\":847:862   */\n      revert\n        /* \"#utility.yul\":874:1155   */\n    tag_39:\n        /* \"#utility.yul\":957:984   */\n      tag_78\n        /* \"#utility.yul\":979:983   */\n      dup3\n        /* \"#utility.yul\":957:984   */\n      tag_37\n      jump\t// in\n    tag_78:\n        /* \"#utility.yul\":949:955   */\n      dup2\n        /* \"#utility.yul\":945:985   */\n      add\n        /* \"#utility.yul\":1087:1093   */\n      dup2\n        /* \"#utility.yul\":1075:1085   */\n      dup2\n        /* \"#utility.yul\":1072:1094   */\n      lt\n        /* \"#utility.yul\":1051:1069   */\n      0xffffffffffffffff\n        /* \"#utility.yul\":1039:1049   */\n      dup3\n        /* \"#utility.yul\":1036:1070   */\n      gt\n        /* \"#utility.yul\":1033:1095   */\n      or\n        /* \"#utility.yul\":1030:1118   */\n      iszero\n      tag_79\n      jumpi\n        /* \"#utility.yul\":1098:1116   */\n      tag_80\n      tag_38\n      jump\t// in\n    tag_80:\n        /* \"#utility.yul\":1030:1118   */\n    tag_79:\n        /* \"#utility.yul\":1138:1148   */\n      dup1\n        /* \"#utility.yul\":1134:1136   */\n      0x40\n        /* \"#utility.yul\":1127:1149   */\n      mstore\n        /* \"#utility.yul\":917:1155   */\n      pop\n        /* \"#utility.yul\":874:1155   */\n      pop\n      pop\n      jump\t// out\n        /* \"#utility.yul\":1161:1290   */\n    tag_40:\n        /* \"#utility.yul\":1195:1201   */\n      0x00\n        /* \"#utility.yul\":1222:1242   */\n      tag_82\n      tag_32\n      jump\t// in\n    tag_82:\n        /* \"#utility.yul\":1212:1242   */\n      swap1\n      pop\n        /* \"#utility.yul\":1251:1284   */\n      tag_83\n        /* \"#utility.yul\":1279:1283   */\n      dup3\n        /* \"#utility.yul\":1271:1277   */\n      dup3\n        /* \"#utility.yul\":1251:1284   */\n      tag_39\n      jump\t// in\n    tag_83:\n        /* \"#utility.yul\":1161:1290   */\n      swap2\n      swap1\n      pop\n      jump\t// out\n        /* \"#utility.yul\":1296:1604   */\n    tag_41:\n        /* \"#utility.yul\":1358:1362   */\n      0x00\n        /* \"#utility.yul\":1448:1466   */\n      0xffffffffffffffff\n        /* \"#utility.yul\":1440:1446   */\n      dup3\n        /* \"#utility.yul\":1437:1467   */\n      gt\n        /* \"#utility.yul\":1434:1490   */\n      iszero\n      tag_85\n      jumpi\n        /* \"#utility.yul\":1470:1488   */\n      tag_86\n      tag_38\n      jump\t// in\n    tag_86:\n        /* \"#utility.yul\":1434:1490   */\n    tag_85:\n        /* \"#utility.yul\":1508:1537   */\n      tag_87\n        /* \"#utility.yul\":1530:1536   */\n      dup3\n        /* \"#utility.yul\":1508:1537   */\n      tag_37\n      jump\t// in\n    tag_87:\n        /* \"#utility.yul\":1500:1537   */\n      swap1\n      pop\n        /* \"#utility.yul\":1592:1596   */\n      0x20\n        /* \"#utility.yul\":1586:1590   */\n      dup2\n        /* \"#utility.yul\":1582:1597   */\n      add\n        /* \"#utility.yul\":1574:1597   */\n      swap1\n      pop\n        /* \"#utility.yul\":1296:1604   */\n      swap2\n      swap1\n      pop\n      jump\t// out\n        /* \"#utility.yul\":1610:1756   */\n    tag_42:\n        /* \"#utility.yul\":1707:1713   */\n      dup3\n        /* \"#utility.yul\":1702:1705   */\n      dup2\n        /* \"#utility.yul\":1697:1700   */\n      dup4\n        /* \"#utility.yul\":1684:1714   */\n      calldatacopy\n        /* \"#utility.yul\":1748:1749   */\n      0x00\n        /* \"#utility.yul\":1739:1745   */\n      dup4\n        /* \"#utility.yul\":1734:1737   */\n      dup4\n        /* \"#utility.yul\":1730:1746   */\n      add\n        /* \"#utility.yul\":1723:1750   */\n      mstore\n        /* \"#utility.yul\":1610:1756   */\n      pop\n      pop\n      pop\n      jump\t// out\n        /* \"#utility.yul\":1762:2187   */\n    tag_43:\n        /* \"#utility.yul\":1840:1845   */\n      0x00\n        /* \"#utility.yul\":1865:1931   */\n      tag_90\n        /* \"#utility.yul\":1881:1930   */\n      tag_91\n        /* \"#utility.yul\":1923:1929   */\n      dup5\n        /* \"#utility.yul\":1881:1930   */\n      tag_41\n      jump\t// in\n    tag_91:\n        /* \"#utility.yul\":1865:1931   */\n      tag_40\n      jump\t// in\n    tag_90:\n        /* \"#utility.yul\":1856:1931   */\n      swap1\n      pop\n        /* \"#utility.yul\":1954:1960   */\n      dup3\n        /* \"#utility.yul\":1947:1952   */\n      dup2\n        /* \"#utility.yul\":1940:1961   */\n      mstore\n        /* \"#utility.yul\":1992:1996   */\n      0x20\n        /* \"#utility.yul\":1985:1990   */\n      dup2\n        /* \"#utility.yul\":1981:1997   */\n      add\n        /* \"#utility.yul\":2030:2033   */\n      dup5\n        /* \"#utility.yul\":2021:2027   */\n      dup5\n        /* \"#utility.yul\":2016:2019   */\n      dup5\n        /* \"#utility.yul\":2012:2028   */\n      add\n        /* \"#utility.yul\":2009:2034   */\n      gt\n        /* \"#utility.yul\":2006:2118   */\n      iszero\n      tag_92\n      jumpi\n        /* \"#utility.yul\":2037:2116   */\n      tag_93\n      tag_36\n      jump\t// in\n    tag_93:\n        /* \"#utility.yul\":2006:2118   */\n    tag_92:\n        /* \"#utility.yul\":2127:2181   */\n      tag_94\n        /* \"#utility.yul\":2174:2180   */\n      dup5\n        /* \"#utility.yul\":2169:2172   */\n      dup3\n        /* \"#utility.yul\":2164:2167   */\n      dup6\n        /* \"#utility.yul\":2127:2181   */\n      tag_42\n      jump\t// in\n    tag_94:\n        /* \"#utility.yul\":1846:2187   */\n      pop\n        /* \"#utility.yul\":1762:2187   */\n      swap4\n      swap3\n      pop\n      pop\n      pop\n      jump\t// out\n        /* \"#utility.yul\":2207:2547   */\n    tag_44:\n        /* \"#utility.yul\":2263:2268   */\n      0x00\n        /* \"#utility.yul\":2312:2315   */\n      dup3\n        /* \"#utility.yul\":2305:2309   */\n      0x1f\n        /* \"#utility.yul\":2297:2303   */\n      dup4\n        /* \"#utility.yul\":2293:2310   */\n      add\n        /* \"#utility.yul\":2289:2316   */\n      slt\n        /* \"#utility.yul\":2279:2401   */\n      tag_96\n      jumpi\n        /* \"#utility.yul\":2320:2399   */\n      tag_97\n      tag_35\n      jump\t// in\n    tag_97:\n        /* \"#utility.yul\":2279:2401   */\n    tag_96:\n        /* \"#utility.yul\":2437:2443   */\n      dup2\n        /* \"#utility.yul\":2424:2444   */\n      calldataload\n        /* \"#utility.yul\":2462:2541   */\n      tag_98\n        /* \"#utility.yul\":2537:2540   */\n      dup5\n        /* \"#utility.yul\":2529:2535   */\n      dup3\n        /* \"#utility.yul\":2522:2526   */\n      0x20\n        /* \"#utility.yul\":2514:2520   */\n      dup7\n        /* \"#utility.yul\":2510:2527   */\n      add\n        /* \"#utility.yul\":2462:2541   */\n      tag_43\n      jump\t// in\n    tag_98:\n        /* \"#utility.yul\":2453:2541   */\n      swap2\n      pop\n        /* \"#utility.yul\":2269:2547   */\n      pop\n        /* \"#utility.yul\":2207:2547   */\n      swap3\n      swap2\n      pop\n      pop\n      jump\t// out\n        /* \"#utility.yul\":2553:2630   */\n    tag_45:\n        /* \"#utility.yul\":2590:2597   */\n      0x00\n        /* \"#utility.yul\":2619:2624   */\n      dup2\n        /* \"#utility.yul\":2608:2624   */\n      swap1\n      pop\n        /* \"#utility.yul\":2553:2630   */\n      swap2\n      swap1\n      pop\n      jump\t// out\n        /* \"#utility.yul\":2636:2758   */\n    tag_46:\n        /* \"#utility.yul\":2709:2733   */\n      tag_101\n        /* \"#utility.yul\":2727:2732   */\n      dup2\n        /* \"#utility.yul\":2709:2733   */\n      tag_45\n      jump\t// in\n    tag_101:\n        /* \"#utility.yul\":2702:2707   */\n      dup2\n        /* \"#utility.yul\":2699:2734   */\n      eq\n        /* \"#utility.yul\":2689:2752   */\n      tag_102\n      jumpi\n        /* \"#utility.yul\":2748:2749   */\n      0x00\n        /* \"#utility.yul\":2745:2746   */\n      dup1\n        /* \"#utility.yul\":2738:2750   */\n      revert\n        /* \"#utility.yul\":2689:2752   */\n    tag_102:\n        /* \"#utility.yul\":2636:2758   */\n      pop\n      jump\t// out\n        /* \"#utility.yul\":2764:2903   */\n    tag_47:\n        /* \"#utility.yul\":2810:2815   */\n      0x00\n        /* \"#utility.yul\":2848:2854   */\n      dup2\n        /* \"#utility.yul\":2835:2855   */\n      calldataload\n        /* \"#utility.yul\":2826:2855   */\n      swap1\n      pop\n        /* \"#utility.yul\":2864:2897   */\n      tag_104\n        /* \"#utility.yul\":2891:2896   */\n      dup2\n        /* \"#utility.yul\":2864:2897   */\n      tag_46\n      jump\t// in\n    tag_104:\n        /* \"#utility.yul\":2764:2903   */\n      swap3\n      swap2\n      pop\n      pop\n      jump\t// out\n        /* \"#utility.yul\":2909:3563   */\n    tag_8:\n        /* \"#utility.yul\":2987:2993   */\n      0x00\n        /* \"#utility.yul\":2995:3001   */\n      dup1\n        /* \"#utility.yul\":3044:3046   */\n      0x40\n        /* \"#utility.yul\":3032:3041   */\n      dup4\n        /* \"#utility.yul\":3023:3030   */\n      dup6\n        /* \"#utility.yul\":3019:3042   */\n      sub\n        /* \"#utility.yul\":3015:3047   */\n      slt\n        /* \"#utility.yul\":3012:3131   */\n      iszero\n      tag_106\n      jumpi\n        /* \"#utility.yul\":3050:3129   */\n      tag_107\n      tag_33\n      jump\t// in\n    tag_107:\n        /* \"#utility.yul\":3012:3131   */\n    tag_106:\n        /* \"#utility.yul\":3198:3199   */\n      0x00\n        /* \"#utility.yul\":3187:3196   */\n      dup4\n        /* \"#utility.yul\":3183:3200   */\n      add\n        /* \"#utility.yul\":3170:3201   */\n      calldataload\n        /* \"#utility.yul\":3228:3246   */\n      0xffffffffffffffff\n        /* \"#utility.yul\":3220:3226   */\n      dup2\n        /* \"#utility.yul\":3217:3247   */\n      gt\n        /* \"#utility.yul\":3214:3331   */\n      iszero\n      tag_108\n      jumpi\n        /* \"#utility.yul\":3250:3329   */\n      tag_109\n      tag_34\n      jump\t// in\n    tag_109:\n        /* \"#utility.yul\":3214:3331   */\n    tag_108:\n        /* \"#utility.yul\":3355:3418   */\n      tag_110\n        /* \"#utility.yul\":3410:3417   */\n      dup6\n        /* \"#utility.yul\":3401:3407   */\n      dup3\n        /* \"#utility.yul\":3390:3399   */\n      dup7\n        /* \"#utility.yul\":3386:3408   */\n      add\n        /* \"#utility.yul\":3355:3418   */\n      tag_44\n      jump\t// in\n    tag_110:\n        /* \"#utility.yul\":3345:3418   */\n      swap3\n      pop\n        /* \"#utility.yul\":3141:3428   */\n      pop\n        /* \"#utility.yul\":3467:3469   */\n      0x20\n        /* \"#utility.yul\":3493:3546   */\n      tag_111\n        /* \"#utility.yul\":3538:3545   */\n      dup6\n        /* \"#utility.yul\":3529:3535   */\n      dup3\n        /* \"#utility.yul\":3518:3527   */\n      dup7\n        /* \"#utility.yul\":3514:3536   */\n      add\n        /* \"#utility.yul\":3493:3546   */\n      tag_47\n      jump\t// in\n    tag_111:\n        /* \"#utility.yul\":3483:3546   */\n      swap2\n      pop\n        /* \"#utility.yul\":3438:3556   */\n      pop\n        /* \"#utility.yul\":2909:3563   */\n      swap3\n      pop\n      swap3\n      swap1\n      pop\n      jump\t// out\n        /* \"#utility.yul\":3569:3898   */\n    tag_12:\n        /* \"#utility.yul\":3628:3634   */\n      0x00\n        /* \"#utility.yul\":3677:3679   */\n      0x20\n        /* \"#utility.yul\":3665:3674   */\n      dup3\n        /* \"#utility.yul\":3656:3663   */\n      dup5\n        /* \"#utility.yul\":3652:3675   */\n      sub\n        /* \"#utility.yul\":3648:3680   */\n      slt\n        /* \"#utility.yul\":3645:3764   */\n      iszero\n      tag_113\n      jumpi\n        /* \"#utility.yul\":3683:3762   */\n      tag_114\n      tag_33\n      jump\t// in\n    tag_114:\n        /* \"#utility.yul\":3645:3764   */\n    tag_113:\n        /* \"#utility.yul\":3803:3804   */\n      0x00\n        /* \"#utility.yul\":3828:3881   */\n      tag_115\n        /* \"#utility.yul\":3873:3880   */\n      dup5\n        /* \"#utility.yul\":3864:3870   */\n      dup3\n        /* \"#utility.yul\":3853:3862   */\n      dup6\n        /* \"#utility.yul\":3849:3871   */\n      add\n        /* \"#utility.yul\":3828:3881   */\n      tag_47\n      jump\t// in\n    tag_115:\n        /* \"#utility.yul\":3818:3881   */\n      swap2\n      pop\n        /* \"#utility.yul\":3774:3891   */\n      pop\n        /* \"#utility.yul\":3569:3898   */\n      swap3\n      swap2\n      pop\n      pop\n      jump\t// out\n        /* \"#utility.yul\":3904:4022   */\n    tag_48:\n        /* \"#utility.yul\":3991:4015   */\n      tag_117\n        /* \"#utility.yul\":4009:4014   */\n      dup2\n        /* \"#utility.yul\":3991:4015   */\n      tag_45\n      jump\t// in\n    tag_117:\n        /* \"#utility.yul\":3986:3989   */\n      dup3\n        /* \"#utility.yul\":3979:4016   */\n      mstore\n        /* \"#utility.yul\":3904:4022   */\n      pop\n      pop\n      jump\t// out\n        /* \"#utility.yul\":4028:4127   */\n    tag_49:\n        /* \"#utility.yul\":4080:4086   */\n      0x00\n        /* \"#utility.yul\":4114:4119   */\n      dup2\n        /* \"#utility.yul\":4108:4120   */\n      mload\n        /* \"#utility.yul\":4098:4120   */\n      swap1\n      pop\n        /* \"#utility.yul\":4028:4127   */\n      swap2\n      swap1\n      pop\n      jump\t// out\n        /* \"#utility.yul\":4133:4302   */\n    tag_50:\n        /* \"#utility.yul\":4217:4228   */\n      0x00\n        /* \"#utility.yul\":4251:4257   */\n      dup3\n        /* \"#utility.yul\":4246:4249   */\n      dup3\n        /* \"#utility.yul\":4239:4258   */\n      mstore\n        /* \"#utility.yul\":4291:4295   */\n      0x20\n        /* \"#utility.yul\":4286:4289   */\n      dup3\n        /* \"#utility.yul\":4282:4296   */\n      add\n        /* \"#utility.yul\":4267:4296   */\n      swap1\n      pop\n        /* \"#utility.yul\":4133:4302   */\n      swap3\n      swap2\n      pop\n      pop\n      jump\t// out\n        /* \"#utility.yul\":4308:4554   */\n    tag_51:\n        /* \"#utility.yul\":4389:4390   */\n      0x00\n        /* \"#utility.yul\":4399:4512   */\n    tag_121:\n        /* \"#utility.yul\":4413:4419   */\n      dup4\n        /* \"#utility.yul\":4410:4411   */\n      dup2\n        /* \"#utility.yul\":4407:4420   */\n      lt\n        /* \"#utility.yul\":4399:4512   */\n      iszero\n      tag_123\n      jumpi\n        /* \"#utility.yul\":4498:4499   */\n      dup1\n        /* \"#utility.yul\":4493:4496   */\n      dup3\n        /* \"#utility.yul\":4489:4500   */\n      add\n        /* \"#utility.yul\":4483:4501   */\n      mload\n        /* \"#utility.yul\":4479:4480   */\n      dup2\n        /* \"#utility.yul\":4474:4477   */\n      dup5\n        /* \"#utility.yul\":4470:4481   */\n      add\n        /* \"#utility.yul\":4463:4502   */\n      mstore\n        /* \"#utility.yul\":4435:4437   */\n      0x20\n        /* \"#utility.yul\":4432:4433   */\n      dup2\n        /* \"#utility.yul\":4428:4438   */\n      add\n        /* \"#utility.yul\":4423:4438   */\n      swap1\n      pop\n        /* \"#utility.yul\":4399:4512   */\n      jump(tag_121)\n    tag_123:\n        /* \"#utility.yul\":4546:4547   */\n      0x00\n        /* \"#utility.yul\":4537:4543   */\n      dup5\n        /* \"#utility.yul\":4532:4535   */\n      dup5\n        /* \"#utility.yul\":4528:4544   */\n      add\n        /* \"#utility.yul\":4521:4548   */\n      mstore\n        /* \"#utility.yul\":4370:4554   */\n      pop\n        /* \"#utility.yul\":4308:4554   */\n      pop\n      pop\n      pop\n      jump\t// out\n        /* \"#utility.yul\":4560:4937   */\n    tag_52:\n        /* \"#utility.yul\":4648:4651   */\n      0x00\n        /* \"#utility.yul\":4676:4715   */\n      tag_125\n        /* \"#utility.yul\":4709:4714   */\n      dup3\n        /* \"#utility.yul\":4676:4715   */\n      tag_49\n      jump\t// in\n    tag_125:\n        /* \"#utility.yul\":4731:4802   */\n      tag_126\n        /* \"#utility.yul\":4795:4801   */\n      dup2\n        /* \"#utility.yul\":4790:4793   */\n      dup6\n        /* \"#utility.yul\":4731:4802   */\n      tag_50\n      jump\t// in\n    tag_126:\n        /* \"#utility.yul\":4724:4802   */\n      swap4\n      pop\n        /* \"#utility.yul\":4811:4876   */\n      tag_127\n        /* \"#utility.yul\":4869:4875   */\n      dup2\n        /* \"#utility.yul\":4864:4867   */\n      dup6\n        /* \"#utility.yul\":4857:4861   */\n      0x20\n        /* \"#utility.yul\":4850:4855   */\n      dup7\n        /* \"#utility.yul\":4846:4862   */\n      add\n        /* \"#utility.yul\":4811:4876   */\n      tag_51\n      jump\t// in\n    tag_127:\n        /* \"#utility.yul\":4901:4930   */\n      tag_128\n        /* \"#utility.yul\":4923:4929   */\n      dup2\n        /* \"#utility.yul\":4901:4930   */\n      tag_37\n      jump\t// in\n    tag_128:\n        /* \"#utility.yul\":4896:4899   */\n      dup5\n        /* \"#utility.yul\":4892:4931   */\n      add\n        /* \"#utility.yul\":4885:4931   */\n      swap2\n      pop\n        /* \"#utility.yul\":4652:4937   */\n      pop\n        /* \"#utility.yul\":4560:4937   */\n      swap3\n      swap2\n      pop\n      pop\n      jump\t// out\n        /* \"#utility.yul\":4943:5366   */\n    tag_15:\n        /* \"#utility.yul\":5084:5088   */\n      0x00\n        /* \"#utility.yul\":5122:5124   */\n      0x40\n        /* \"#utility.yul\":5111:5120   */\n      dup3\n        /* \"#utility.yul\":5107:5125   */\n      add\n        /* \"#utility.yul\":5099:5125   */\n      swap1\n      pop\n        /* \"#utility.yul\":5135:5206   */\n      tag_130\n        /* \"#utility.yul\":5203:5204   */\n      0x00\n        /* \"#utility.yul\":5192:5201   */\n      dup4\n        /* \"#utility.yul\":5188:5205   */\n      add\n        /* \"#utility.yul\":5179:5185   */\n      dup6\n        /* \"#utility.yul\":5135:5206   */\n      tag_48\n      jump\t// in\n    tag_130:\n        /* \"#utility.yul\":5253:5262   */\n      dup2\n        /* \"#utility.yul\":5247:5251   */\n      dup2\n        /* \"#utility.yul\":5243:5263   */\n      sub\n        /* \"#utility.yul\":5238:5240   */\n      0x20\n        /* \"#utility.yul\":5227:5236   */\n      dup4\n        /* \"#utility.yul\":5223:5241   */\n      add\n        /* \"#utility.yul\":5216:5264   */\n      mstore\n        /* \"#utility.yul\":5281:5359   */\n      tag_131\n        /* \"#utility.yul\":5354:5358   */\n      dup2\n        /* \"#utility.yul\":5345:5351   */\n      dup5\n        /* \"#utility.yul\":5281:5359   */\n      tag_52\n      jump\t// in\n    tag_131:\n        /* \"#utility.yul\":5273:5359   */\n      swap1\n      pop\n        /* \"#utility.yul\":4943:5366   */\n      swap4\n      swap3\n      pop\n      pop\n      pop\n      jump\t// out\n        /* \"#utility.yul\":5372:5594   */\n    tag_19:\n        /* \"#utility.yul\":5465:5469   */\n      0x00\n        /* \"#utility.yul\":5503:5505   */\n      0x20\n        /* \"#utility.yul\":5492:5501   */\n      dup3\n        /* \"#utility.yul\":5488:5506   */\n      add\n        /* \"#utility.yul\":5480:5506   */\n      swap1\n      pop\n        /* \"#utility.yul\":5516:5587   */\n      tag_133\n        /* \"#utility.yul\":5584:5585   */\n      0x00\n        /* \"#utility.yul\":5573:5582   */\n      dup4\n        /* \"#utility.yul\":5569:5586   */\n      add\n        /* \"#utility.yul\":5560:5566   */\n      dup5\n        /* \"#utility.yul\":5516:5587   */\n      tag_48\n      jump\t// in\n    tag_133:\n        /* \"#utility.yul\":5372:5594   */\n      swap3\n      swap2\n      pop\n      pop\n      jump\t// out\n        /* \"#utility.yul\":5600:5780   */\n    tag_53:\n        /* \"#utility.yul\":5648:5725   */\n      0x4e487b7100000000000000000000000000000000000000000000000000000000\n        /* \"#utility.yul\":5645:5646   */\n      0x00\n        /* \"#utility.yul\":5638:5726   */\n      mstore\n        /* \"#utility.yul\":5745:5749   */\n      0x22\n        /* \"#utility.yul\":5742:5743   */\n      0x04\n        /* \"#utility.yul\":5735:5750   */\n      mstore\n        /* \"#utility.yul\":5769:5773   */\n      0x24\n        /* \"#utility.yul\":5766:5767   */\n      0x00\n        /* \"#utility.yul\":5759:5774   */\n      revert\n        /* \"#utility.yul\":5786:6106   */\n    tag_27:\n        /* \"#utility.yul\":5830:5836   */\n      0x00\n        /* \"#utility.yul\":5867:5868   */\n      0x02\n        /* \"#utility.yul\":5861:5865   */\n      dup3\n        /* \"#utility.yul\":5857:5869   */\n      div\n        /* \"#utility.yul\":5847:5869   */\n      swap1\n      pop\n        /* \"#utility.yul\":5914:5915   */\n      0x01\n        /* \"#utility.yul\":5908:5912   */\n      dup3\n        /* \"#utility.yul\":5904:5916   */\n      and\n        /* \"#utility.yul\":5935:5953   */\n      dup1\n        /* \"#utility.yul\":5925:6006   */\n      tag_136\n      jumpi\n        /* \"#utility.yul\":5991:5995   */\n      0x7f\n        /* \"#utility.yul\":5983:5989   */\n      dup3\n        /* \"#utility.yul\":5979:5996   */\n      and\n        /* \"#utility.yul\":5969:5996   */\n      swap2\n      pop\n        /* \"#utility.yul\":5925:6006   */\n    tag_136:\n        /* \"#utility.yul\":6053:6055   */\n      0x20\n        /* \"#utility.yul\":6045:6051   */\n      dup3\n        /* \"#utility.yul\":6042:6056   */\n      lt\n        /* \"#utility.yul\":6022:6040   */\n      dup2\n        /* \"#utility.yul\":6019:6057   */\n      sub\n        /* \"#utility.yul\":6016:6100   */\n      tag_137\n      jumpi\n        /* \"#utility.yul\":6072:6090   */\n      tag_138\n      tag_53\n      jump\t// in\n    tag_138:\n        /* \"#utility.yul\":6016:6100   */\n    tag_137:\n        /* \"#utility.yul\":5837:6106   */\n      pop\n        /* \"#utility.yul\":5786:6106   */\n      swap2\n      swap1\n      pop\n      jump\t// out\n        /* \"#utility.yul\":6112:6253   */\n    tag_54:\n        /* \"#utility.yul\":6161:6165   */\n      0x00\n        /* \"#utility.yul\":6184:6187   */\n      dup2\n        /* \"#utility.yul\":6176:6187   */\n      swap1\n      pop\n        /* \"#utility.yul\":6207:6210   */\n      dup2\n        /* \"#utility.yul\":6204:6205   */\n      0x00\n        /* \"#utility.yul\":6197:6211   */\n      mstore\n        /* \"#utility.yul\":6241:6245   */\n      0x20\n        /* \"#utility.yul\":6238:6239   */\n      0x00\n        /* \"#utility.yul\":6228:6246   */\n      keccak256\n        /* \"#utility.yul\":6220:6246   */\n      swap1\n      pop\n        /* \"#utility.yul\":6112:6253   */\n      swap2\n      swap1\n      pop\n      jump\t// out\n        /* \"#utility.yul\":6259:6352   */\n    tag_55:\n        /* \"#utility.yul\":6296:6302   */\n      0x00\n        /* \"#utility.yul\":6343:6345   */\n      0x20\n        /* \"#utility.yul\":6338:6340   */\n      0x1f\n        /* \"#utility.yul\":6331:6336   */\n      dup4\n        /* \"#utility.yul\":6327:6341   */\n      add\n        /* \"#utility.yul\":6323:6346   */\n      div\n        /* \"#utility.yul\":6313:6346   */\n      swap1\n      pop\n        /* \"#utility.yul\":6259:6352   */\n      swap2\n      swap1\n      pop\n      jump\t// out\n        /* \"#utility.yul\":6358:6465   */\n    tag_56:\n        /* \"#utility.yul\":6402:6410   */\n      0x00\n        /* \"#utility.yul\":6452:6457   */\n      dup3\n        /* \"#utility.yul\":6446:6450   */\n      dup3\n        /* \"#utility.yul\":6442:6458   */\n      shl\n        /* \"#utility.yul\":6421:6458   */\n      swap1\n      pop\n        /* \"#utility.yul\":6358:6465   */\n      swap3\n      swap2\n      pop\n      pop\n      jump\t// out\n        /* \"#utility.yul\":6471:6864   */\n    tag_57:\n        /* \"#utility.yul\":6540:6546   */\n      0x00\n        /* \"#utility.yul\":6590:6591   */\n      0x08\n        /* \"#utility.yul\":6578:6588   */\n      dup4\n        /* \"#utility.yul\":6574:6592   */\n      mul\n        /* \"#utility.yul\":6613:6710   */\n      tag_143\n        /* \"#utility.yul\":6643:6709   */\n      0xffffffffffffffffffffffffffffffffffffffffffffffffffffffffffffffff\n        /* \"#utility.yul\":6632:6641   */\n      dup3\n        /* \"#utility.yul\":6613:6710   */\n      tag_56\n      jump\t// in\n    tag_143:\n        /* \"#utility.yul\":6731:6770   */\n      tag_144\n        /* \"#utility.yul\":6761:6769   */\n      dup7\n        /* \"#utility.yul\":6750:6759   */\n      dup4\n        /* \"#utility.yul\":6731:6770   */\n      tag_56\n      jump\t// in\n    tag_144:\n        /* \"#utility.yul\":6719:6770   */\n      swap6\n      pop\n        /* \"#utility.yul\":6803:6807   */\n      dup1\n        /* \"#utility.yul\":6799:6808   */\n      not\n        /* \"#utility.yul\":6792:6797   */\n      dup5\n        /* \"#utility.yul\":6788:6809   */\n      and\n        /* \"#utility.yul\":6779:6809   */\n      swap4\n      pop\n        /* \"#utility.yul\":6852:6856   */\n      dup1\n        /* \"#utility.yul\":6842:6850   */\n      dup7\n        /* \"#utility.yul\":6838:6857   */\n      and\n        /* \"#utility.yul\":6831:6836   */\n      dup5\n        /* \"#utility.yul\":6828:6858   */\n      or\n        /* \"#utility.yul\":6818:6858   */\n      swap3\n      pop\n        /* \"#utility.yul\":6547:6864   */\n      pop\n      pop\n        /* \"#utility.yul\":6471:6864   */\n      swap4\n      swap3\n      pop\n      pop\n      pop\n      jump\t// out\n        /* \"#utility.yul\":6870:6930   */\n    tag_58:\n        /* \"#utility.yul\":6898:6901   */\n      0x00\n        /* \"#utility.yul\":6919:6924   */\n      dup2\n        /* \"#utility.yul\":6912:6924   */\n      swap1\n      pop\n        /* \"#utility.yul\":6870:6930   */\n      swap2\n      swap1\n      pop\n      jump\t// out\n        /* \"#utility.yul\":6936:7078   */\n    tag_59:\n        /* \"#utility.yul\":6986:6995   */\n      0x00\n        /* \"#utility.yul\":7019:7072   */\n      tag_147\n        /* \"#utility.yul\":7037:7071   */\n      tag_148\n        /* \"#utility.yul\":7046:7070   */\n      tag_149\n        /* \"#utility.yul\":7064:7069   */\n      dup5\n        /* \"#utility.yul\":7046:7070   */\n      tag_45\n      jump\t// in\n    tag_149:\n        /* \"#utility.yul\":7037:7071   */\n      tag_58\n      jump\t// in\n    tag_148:\n        /* \"#utility.yul\":7019:7072   */\n      tag_45\n      jump\t// in\n    tag_147:\n        /* \"#utility.yul\":7006:7072   */\n      swap1\n      pop\n        /* \"#utility.yul\":6936:7078   */\n      swap2\n      swap1\n      pop\n      jump\t// out\n        /* \"#utility.yul\":7084:7159   */\n    tag_60:\n        /* \"#utility.yul\":7127:7130   */\n      0x00\n        /* \"#utility.yul\":7148:7153   */\n      dup2\n        /* \"#utility.yul\":7141:7153   */\n      swap1\n      pop\n        /* \"#utility.yul\":7084:7159   */\n      swap2\n      swap1\n      pop\n      jump\t// out\n        /* \"#utility.yul\":7165:7434   */\n    tag_61:\n        /* \"#utility.yul\":7275:7314   */\n      tag_152\n        /* \"#utility.yul\":7306:7313   */\n      dup4\n        /* \"#utility.yul\":7275:7314   */\n      tag_59\n      jump\t// in\n    tag_152:\n        /* \"#utility.yul\":7336:7427   */\n      tag_153\n        /* \"#utility.yul\":7385:7426   */\n      tag_154\n        /* \"#utility.yul\":7409:7425   */\n      dup3\n        /* \"#utility.yul\":7385:7426   */\n      tag_60\n      jump\t// in\n    tag_154:\n        /* \"#utility.yul\":7377:7383   */\n      dup5\n        /* \"#utility.yul\":7370:7374   */\n      dup5\n        /* \"#utility.yul\":7364:7375   */\n      sload\n        /* \"#utility.yul\":7336:7427   */\n      tag_57\n      jump\t// in\n    tag_153:\n        /* \"#utility.yul\":7330:7334   */\n      dup3\n        /* \"#utility.yul\":7323:7428   */\n      sstore\n        /* \"#utility.yul\":7241:7434   */\n      pop\n        /* \"#utility.yul\":7165:7434   */\n      pop\n      pop\n      pop\n      jump\t// out\n        /* \"#utility.yul\":7440:7513   */\n    tag_62:\n        /* \"#utility.yul\":7485:7488   */\n      0x00\n        /* \"#utility.yul\":7440:7513   */\n      swap1\n      jump\t// out\n        /* \"#utility.yul\":7519:7708   */\n    tag_63:\n        /* \"#utility.yul\":7596:7628   */\n      tag_157\n      tag_62\n      jump\t// in\n    tag_157:\n        /* \"#utility.yul\":7637:7702   */\n      tag_158\n        /* \"#utility.yul\":7695:7701   */\n      dup2\n        /* \"#utility.yul\":7687:7693   */\n      dup5\n        /* \"#utility.yul\":7681:7685   */\n      dup5\n        /* \"#utility.yul\":7637:7702   */\n      tag_61\n      jump\t// in\n    tag_158:\n        /* \"#utility.yul\":7572:7708   */\n      pop\n        /* \"#utility.yul\":7519:7708   */\n      pop\n      pop\n      jump\t// out\n        /* \"#utility.yul\":7714:7900   */\n    tag_64:\n        /* \"#utility.yul\":7774:7894   */\n    tag_160:\n        /* \"#utility.yul\":7791:7794   */\n      dup2\n        /* \"#utility.yul\":7784:7789   */\n      dup2\n        /* \"#utility.yul\":7781:7795   */\n      lt\n        /* \"#utility.yul\":7774:7894   */\n      iszero\n      tag_162\n      jumpi\n        /* \"#utility.yul\":7845:7884   */\n      tag_163\n        /* \"#utility.yul\":7882:7883   */\n      0x00\n        /* \"#utility.yul\":7875:7880   */\n      dup3\n        /* \"#utility.yul\":7845:7884   */\n      tag_63\n      jump\t// in\n    tag_163:\n        /* \"#utility.yul\":7818:7819   */\n      0x01\n        /* \"#utility.yul\":7811:7816   */\n      dup2\n        /* \"#utility.yul\":7807:7820   */\n      add\n        /* \"#utility.yul\":7798:7820   */\n      swap1\n      pop\n        /* \"#utility.yul\":7774:7894   */\n      jump(tag_160)\n    tag_162:\n        /* \"#utility.yul\":7714:7900   */\n      pop\n      pop\n      jump\t// out\n        /* \"#utility.yul\":7906:8449   */\n    tag_65:\n        /* \"#utility.yul\":8007:8009   */\n      0x1f\n        /* \"#utility.yul\":8002:8005   */\n      dup3\n        /* \"#utility.yul\":7999:8010   */\n      gt\n        /* \"#utility.yul\":7996:8442   */\n      iszero\n      tag_165\n      jumpi\n        /* \"#utility.yul\":8041:8079   */\n      tag_166\n        /* \"#utility.yul\":8073:8078   */\n      dup2\n        /* \"#utility.yul\":8041:8079   */\n      tag_54\n      jump\t// in\n    tag_166:\n        /* \"#utility.yul\":8125:8154   */\n      tag_167\n        /* \"#utility.yul\":8143:8153   */\n      dup5\n        /* \"#utility.yul\":8125:8154   */\n      tag_55\n      jump\t// in\n    tag_167:\n        /* \"#utility.yul\":8115:8123   */\n      dup2\n        /* \"#utility.yul\":8111:8155   */\n      add\n        /* \"#utility.yul\":8308:8310   */\n      0x20\n        /* \"#utility.yul\":8296:8306   */\n      dup6\n        /* \"#utility.yul\":8293:8311   */\n      lt\n        /* \"#utility.yul\":8290:8339   */\n      iszero\n      tag_168\n      jumpi\n        /* \"#utility.yul\":8329:8337   */\n      dup2\n        /* \"#utility.yul\":8314:8337   */\n      swap1\n      pop\n        /* \"#utility.yul\":8290:8339   */\n    tag_168:\n        /* \"#utility.yul\":8352:8432   */\n      tag_169\n        /* \"#utility.yul\":8408:8430   */\n      tag_170\n        /* \"#utility.yul\":8426:8429   */\n      dup6\n        /* \"#utility.yul\":8408:8430   */\n      tag_55\n      jump\t// in\n    tag_170:\n        /* \"#utility.yul\":8398:8406   */\n      dup4\n        /* \"#utility.yul\":8394:8431   */\n      add\n        /* \"#utility.yul\":8381:8392   */\n      dup3\n        /* \"#utility.yul\":8352:8432   */\n      tag_64\n      jump\t// in\n    tag_169:\n        /* \"#utility.yul\":8011:8442   */\n      pop\n      pop\n        /* \"#utility.yul\":7996:8442   */\n    tag_165:\n        /* \"#utility.yul\":7906:8449   */\n      pop\n      pop\n      pop\n      jump\t// out\n        /* \"#utility.yul\":8455:8572   */\n    tag_66:\n        /* \"#utility.yul\":8509:8517   */\n      0x00\n        /* \"#utility.yul\":8559:8564   */\n      dup3\n        /* \"#utility.yul\":8553:8557   */\n      dup3\n        /* \"#utility.yul\":8549:8565   */\n      shr\n        /* \"#utility.yul\":8528:8565   */\n      swap1\n      pop\n        /* \"#utility.yul\":8455:8572   */\n      swap3\n      swap2\n      pop\n      pop\n      jump\t// out\n        /* \"#utility.yul\":8578:8747   */\n    tag_67:\n        /* \"#utility.yul\":8622:8628   */\n      0x00\n        /* \"#utility.yul\":8655:8706   */\n      tag_173\n        /* \"#utility.yul\":8703:8704   */\n      0x00\n        /* \"#utility.yul\":8699:8705   */\n      not\n        /* \"#utility.yul\":8691:8696   */\n      dup5\n        /* \"#utility.yul\":8688:8689   */\n      0x08\n        /* \"#utility.yul\":8684:8697   */\n      mul\n        /* \"#utility.yul\":8655:8706   */\n      tag_66\n      jump\t// in\n    tag_173:\n        /* \"#utility.yul\":8651:8707   */\n      not\n        /* \"#utility.yul\":8736:8740   */\n      dup1\n        /* \"#utility.yul\":8730:8734   */\n      dup4\n        /* \"#utility.yul\":8726:8741   */\n      and\n        /* \"#utility.yul\":8716:8741   */\n      swap2\n      pop\n        /* \"#utility.yul\":8629:8747   */\n      pop\n        /* \"#utility.yul\":8578:8747   */\n      swap3\n      swap2\n      pop\n      pop\n      jump\t// out\n        /* \"#utility.yul\":8752:9047   */\n    tag_68:\n        /* \"#utility.yul\":8828:8832   */\n      0x00\n        /* \"#utility.yul\":8974:9003   */\n      tag_175\n        /* \"#utility.yul\":8999:9002   */\n      dup4\n        /* \"#utility.yul\":8993:8997   */\n      dup4\n        /* \"#utility.yul\":8974:9003   */\n      tag_67\n      jump\t// in\n    tag_175:\n        /* \"#utility.yul\":8966:9003   */\n      swap2\n      pop\n        /* \"#utility.yul\":9036:9039   */\n      dup3\n        /* \"#utility.yul\":9033:9034   */\n      0x02\n        /* \"#utility.yul\":9029:9040   */\n      mul\n        /* \"#utility.yul\":9023:9027   */\n      dup3\n        /* \"#utility.yul\":9020:9041   */\n      or\n        /* \"#utility.yul\":9012:9041   */\n      swap1\n      pop\n        /* \"#utility.yul\":8752:9047   */\n      swap3\n      swap2\n      pop\n      pop\n      jump\t// out\n        /* \"#utility.yul\":9052:10447   */\n    tag_23:\n        /* \"#utility.yul\":9169:9206   */\n      tag_177\n        /* \"#utility.yul\":9202:9205   */\n      dup3\n        /* \"#utility.yul\":9169:9206   */\n      tag_49\n      jump\t// in\n    tag_177:\n        /* \"#utility.yul\":9271:9289   */\n      0xffffffffffffffff\n        /* \"#utility.yul\":9263:9269   */\n      dup2\n        /* \"#utility.yul\":9260:9290   */\n      gt\n        /* \"#utility.yul\":9257:9313   */\n      iszero\n      tag_178\n      jumpi\n        /* \"#utility.yul\":9293:9311   */\n      tag_179\n      tag_38\n      jump\t// in\n    tag_179:\n        /* \"#utility.yul\":9257:9313   */\n    tag_178:\n        /* \"#utility.yul\":9337:9375   */\n      tag_180\n        /* \"#utility.yul\":9369:9373   */\n      dup3\n        /* \"#utility.yul\":9363:9374   */\n      sload\n        /* \"#utility.yul\":9337:9375   */\n      tag_27\n      jump\t// in\n    tag_180:\n        /* \"#utility.yul\":9422:9489   */\n      tag_181\n        /* \"#utility.yul\":9482:9488   */\n      dup3\n        /* \"#utility.yul\":9474:9480   */\n      dup3\n        /* \"#utility.yul\":9468:9472   */\n      dup6\n        /* \"#utility.yul\":9422:9489   */\n      tag_65\n      jump\t// in\n    tag_181:\n        /* \"#utility.yul\":9516:9517   */\n      0x00\n        /* \"#utility.yul\":9540:9544   */\n      0x20\n        /* \"#utility.yul\":9527:9544   */\n      swap1\n      pop\n        /* \"#utility.yul\":9572:9574   */\n      0x1f\n        /* \"#utility.yul\":9564:9570   */\n      dup4\n        /* \"#utility.yul\":9561:9575   */\n      gt\n        /* \"#utility.yul\":9589:9590   */\n      0x01\n        /* \"#utility.yul\":9584:10202   */\n      dup2\n      eq\n      tag_183\n      jumpi\n        /* \"#utility.yul\":10246:10247   */\n      0x00\n        /* \"#utility.yul\":10263:10269   */\n      dup5\n        /* \"#utility.yul\":10260:10337   */\n      iszero\n      tag_184\n      jumpi\n        /* \"#utility.yul\":10312:10321   */\n      dup3\n        /* \"#utility.yul\":10307:10310   */\n      dup8\n        /* \"#utility.yul\":10303:10322   */\n      add\n        /* \"#utility.yul\":10297:10323   */\n      mload\n        /* \"#utility.yul\":10288:10323   */\n      swap1\n      pop\n        /* \"#utility.yul\":10260:10337   */\n    tag_184:\n        /* \"#utility.yul\":10363:10430   */\n      tag_185\n        /* \"#utility.yul\":10423:10429   */\n      dup6\n        /* \"#utility.yul\":10416:10421   */\n      dup3\n        /* \"#utility.yul\":10363:10430   */\n      tag_68\n      jump\t// in\n    tag_185:\n        /* \"#utility.yul\":10357:10361   */\n      dup7\n        /* \"#utility.yul\":10350:10431   */\n      sstore\n        /* \"#utility.yul\":10219:10441   */\n      pop\n        /* \"#utility.yul\":9554:10441   */\n      jump(tag_182)\n        /* \"#utility.yul\":9584:10202   */\n    tag_183:\n        /* \"#utility.yul\":9636:9640   */\n      0x1f\n        /* \"#utility.yul\":9632:9641   */\n      not\n        /* \"#utility.yul\":9624:9630   */\n      dup5\n        /* \"#utility.yul\":9620:9642   */\n      and\n        /* \"#utility.yul\":9670:9707   */\n      tag_186\n        /* \"#utility.yul\":9702:9706   */\n      dup7\n        /* \"#utility.yul\":9670:9707   */\n      tag_54\n      jump\t// in\n    tag_186:\n        /* \"#utility.yul\":9729:9730   */\n      0x00\n        /* \"#utility.yul\":9743:9951   */\n    tag_187:\n        /* \"#utility.yul\":9757:9764   */\n      dup3\n        /* \"#utility.yul\":9754:9755   */\n      dup2\n        /* \"#utility.yul\":9751:9765   */\n      lt\n        /* \"#utility.yul\":9743:9951   */\n      iszero\n      tag_189\n      jumpi\n        /* \"#utility.yul\":9836:9845   */\n      dup5\n        /* \"#utility.yul\":9831:9834   */\n      dup10\n        /* \"#utility.yul\":9827:9846   */\n      add\n        /* \"#utility.yul\":9821:9847   */\n      mload\n        /* \"#utility.yul\":9813:9819   */\n      dup3\n        /* \"#utility.yul\":9806:9848   */\n      sstore\n        /* \"#utility.yul\":9887:9888   */\n      0x01\n        /* \"#utility.yul\":9879:9885   */\n      dup3\n        /* \"#utility.yul\":9875:9889   */\n      add\n        /* \"#utility.yul\":9865:9889   */\n      swap2\n      pop\n        /* \"#utility.yul\":9934:9936   */\n      0x20\n        /* \"#utility.yul\":9923:9932   */\n      dup6\n        /* \"#utility.yul\":9919:9937   */\n      add\n        /* \"#utility.yul\":9906:9937   */\n      swap5\n      pop\n        /* \"#utility.yul\":9780:9784   */\n      0x20\n        /* \"#utility.yul\":9777:9778   */\n      dup2\n        /* \"#utility.yul\":9773:9785   */\n      add\n        /* \"#utility.yul\":9768:9785   */\n      swap1\n      pop\n        /* \"#utility.yul\":9743:9951   */\n      jump(tag_187)\n    tag_189:\n        /* \"#utility.yul\":9979:9985   */\n      dup7\n        /* \"#utility.yul\":9970:9977   */\n      dup4\n        /* \"#utility.yul\":9967:9986   */\n      lt\n        /* \"#utility.yul\":9964:10143   */\n      iszero\n      tag_190\n      jumpi\n        /* \"#utility.yul\":10037:10046   */\n      dup5\n        /* \"#utility.yul\":10032:10035   */\n      dup10\n        /* \"#utility.yul\":10028:10047   */\n      add\n        /* \"#utility.yul\":10022:10048   */\n      mload\n        /* \"#utility.yul\":10080:10128   */\n      tag_191\n        /* \"#utility.yul\":10122:10126   */\n      0x1f\n        /* \"#utility.yul\":10114:10120   */\n      dup10\n        /* \"#utility.yul\":10110:10127   */\n      and\n        /* \"#utility.yul\":10099:10108   */\n      dup3\n        /* \"#utility.yul\":10080:10128   */\n      tag_67\n      jump\t// in\n    tag_191:\n        /* \"#utility.yul\":10072:10078   */\n      dup4\n        /* \"#utility.yul\":10065:10129   */\n      sstore\n        /* \"#utility.yul\":9987:10143   */\n      pop\n        /* \"#utility.yul\":9964:10143   */\n    tag_190:\n        /* \"#utility.yul\":10189:10190   */\n      0x01\n        /* \"#utility.yul\":10185:10186   */\n      0x02\n        /* \"#utility.yul\":10177:10183   */\n      dup9\n        /* \"#utility.yul\":10173:10187   */\n      mul\n        /* \"#utility.yul\":10169:10191   */\n      add\n        /* \"#utility.yul\":10163:10167   */\n      dup9\n        /* \"#utility.yul\":10156:10192   */\n      sstore\n        /* \"#utility.yul\":9591:10202   */\n      pop\n      pop\n      pop\n        /* \"#utility.yul\":9554:10441   */\n    tag_182:\n      pop\n        /* \"#utility.yul\":9144:10447   */\n      pop\n      pop\n      pop\n        /* \"#utility.yul\":9052:10447   */\n      pop\n      pop\n      jump\t// out\n\n    auxdata: 0xa264697066735822122084681de4c03f8cc5230dc57fd3d1e9f50f744e6142c92a0d1012ad170131ff6664736f6c63430008120033\n}\n",
				"bytecode": {
					"linkReferences": {},
					"object": "608060405234801561001057600080fd5b506107df806100206000396000f3fe608060405234801561001057600080fd5b50600436106100415760003560e01c80636f760f41146100465780639e7a13ad14610062578063bae9c9a814610093575b600080fd5b610060600480360381019061005b9190610369565b6100b1565b005b61007c600480360381019061007791906103c5565b610117565b60405161008a929190610480565b60405180910390f35b61009b6101d3565b6040516100a891906104b0565b60405180910390f35b6001604051806040016040528083815260200184815250908060018154018082558091505060019003906000526020600020906002020160009091909190915060008201518160000155602082015181600101908161011091906106d7565b5050505050565b6001818154811061012757600080fd5b9060005260206000209060020201600091509050806000015490806001018054610150906104fa565b80601f016020809104026020016040519081016040528092919081815260200182805461017c906104fa565b80156101c95780601f1061019e576101008083540402835291602001916101c9565b820191906000526020600020905b8154815290600101906020018083116101ac57829003601f168201915b5050505050905082565b60005481565b6000604051905090565b600080fd5b600080fd5b600080fd5b600080fd5b6000601f19601f8301169050919050565b7f4e487b7100000000000000000000000000000000000000000000000000000000600052604160045260246000fd5b610240826101f7565b810181811067ffffffffffffffff8211171561025f5761025e610208565b5b80604052505050565b60006102726101d9565b905061027e8282610237565b919050565b600067ffffffffffffffff82111561029e5761029d610208565b5b6102a7826101f7565b9050602081019050919050565b82818337600083830152505050565b60006102d66102d184610283565b610268565b9050828152602081018484840111156102f2576102f16101f2565b5b6102fd8482856102b4565b509392505050565b600082601f83011261031a576103196101ed565b5b813561032a8482602086016102c3565b91505092915050565b6000819050919050565b61034681610333565b811461035157600080fd5b50565b6000813590506103638161033d565b92915050565b600080604083850312156103805761037f6101e3565b5b600083013567ffffffffffffffff81111561039e5761039d6101e8565b5b6103aa85828601610305565b92505060206103bb85828601610354565b9150509250929050565b6000602082840312156103db576103da6101e3565b5b60006103e984828501610354565b91505092915050565b6103fb81610333565b82525050565b600081519050919050565b600082825260208201905092915050565b60005b8381101561043b578082015181840152602081019050610420565b60008484015250505050565b600061045282610401565b61045c818561040c565b935061046c81856020860161041d565b610475816101f7565b840191505092915050565b600060408201905061049560008301856103f2565b81810360208301526104a78184610447565b90509392505050565b60006020820190506104c560008301846103f2565b92915050565b7f4e487b7100000000000000000000000000000000000000000000000000000000600052602260045260246000fd5b6000600282049050600182168061051257607f821691505b602082108103610525576105246104cb565b5b50919050565b60008190508160005260206000209050919050565b60006020601f8301049050919050565b600082821b905092915050565b60006008830261058d7fffffffffffffffffffffffffffffffffffffffffffffffffffffffffffffffff82610550565b6105978683610550565b95508019841693508086168417925050509392505050565b6000819050919050565b60006105d46105cf6105ca84610333565b6105af565b610333565b9050919050565b6000819050919050565b6105ee836105b9565b6106026105fa826105db565b84845461055d565b825550505050565b600090565b61061761060a565b6106228184846105e5565b505050565b5b818110156106465761063b60008261060f565b600181019050610628565b5050565b601f82111561068b5761065c8161052b565b61066584610540565b81016020851015610674578190505b61068861068085610540565b830182610627565b50505b505050565b600082821c905092915050565b60006106ae60001984600802610690565b1980831691505092915050565b60006106c7838361069d565b9150826002028217905092915050565b6106e082610401565b67ffffffffffffffff8111156106f9576106f8610208565b5b61070382546104fa565b61070e82828561064a565b600060209050601f831160018114610741576000841561072f578287015190505b61073985826106bb565b8655506107a1565b601f19841661074f8661052b565b60005b8281101561077757848901518255600182019150602085019450602081019050610752565b868310156107945784890151610790601f89168261069d565b8355505b6001600288020188555050505b50505050505056fea264697066735822122084681de4c03f8cc5230dc57fd3d1e9f50f744e6142c92a0d1012ad170131ff6664736f6c63430008120033",
					"opcodes": "PUSH1 0x80 PUSH1 0x40 MSTORE CALLVALUE DUP1 ISZERO PUSH2 0x10 JUMPI PUSH1 0x0 DUP1 REVERT JUMPDEST POP PUSH2 0x7DF DUP1 PUSH2 0x20 PUSH1 0x0 CODECOPY PUSH1 0x0 RETURN INVALID PUSH1 0x80 PUSH1 0x40 MSTORE CALLVALUE DUP1 ISZERO PUSH2 0x10 JUMPI PUSH1 0x0 DUP1 REVERT JUMPDEST POP PUSH1 0x4 CALLDATASIZE LT PUSH2 0x41 JUMPI PUSH1 0x0 CALLDATALOAD PUSH1 0xE0 SHR DUP1 PUSH4 0x6F760F41 EQ PUSH2 0x46 JUMPI DUP1 PUSH4 0x9E7A13AD EQ PUSH2 0x62 JUMPI DUP1 PUSH4 0xBAE9C9A8 EQ PUSH2 0x93 JUMPI JUMPDEST PUSH1 0x0 DUP1 REVERT JUMPDEST PUSH2 0x60 PUSH1 0x4 DUP1 CALLDATASIZE SUB DUP2 ADD SWAP1 PUSH2 0x5B SWAP2 SWAP1 PUSH2 0x369 JUMP JUMPDEST PUSH2 0xB1 JUMP JUMPDEST STOP JUMPDEST PUSH2 0x7C PUSH1 0x4 DUP1 CALLDATASIZE SUB DUP2 ADD SWAP1 PUSH2 0x77 SWAP2 SWAP1 PUSH2 0x3C5 JUMP JUMPDEST PUSH2 0x117 JUMP JUMPDEST PUSH1 0x40 MLOAD PUSH2 0x8A SWAP3 SWAP2 SWAP1 PUSH2 0x480 JUMP JUMPDEST PUSH1 0x40 MLOAD DUP1 SWAP2 SUB SWAP1 RETURN JUMPDEST PUSH2 0x9B PUSH2 0x1D3 JUMP JUMPDEST PUSH1 0x40 MLOAD PUSH2 0xA8 SWAP2 SWAP1 PUSH2 0x4B0 JUMP JUMPDEST PUSH1 0x40 MLOAD DUP1 SWAP2 SUB SWAP1 RETURN JUMPDEST PUSH1 0x1 PUSH1 0x40 MLOAD DUP1 PUSH1 0x40 ADD PUSH1 0x40 MSTORE DUP1 DUP4 DUP2 MSTORE PUSH1 0x20 ADD DUP5 DUP2 MSTORE POP SWAP1 DUP1 PUSH1 0x1 DUP2 SLOAD ADD DUP1 DUP3 SSTORE DUP1 SWAP2 POP POP PUSH1 0x1 SWAP1 SUB SWAP1 PUSH1 0x0 MSTORE PUSH1 0x20 PUSH1 0x0 KECCAK256 SWAP1 PUSH1 0x2 MUL ADD PUSH1 0x0 SWAP1 SWAP2 SWAP1 SWAP2 SWAP1 SWAP2 POP PUSH1 0x0 DUP3 ADD MLOAD DUP2 PUSH1 0x0 ADD SSTORE PUSH1 0x20 DUP3 ADD MLOAD DUP2 PUSH1 0x1 ADD SWAP1 DUP2 PUSH2 0x110 SWAP2 SWAP1 PUSH2 0x6D7 JUMP JUMPDEST POP POP POP POP POP JUMP JUMPDEST PUSH1 0x1 DUP2 DUP2 SLOAD DUP2 LT PUSH2 0x127 JUMPI PUSH1 0x0 DUP1 REVERT JUMPDEST SWAP1 PUSH1 0x0 MSTORE PUSH1 0x20 PUSH1 0x0 KECCAK256 SWAP1 PUSH1 0x2 MUL ADD PUSH1 0x0 SWAP2 POP SWAP1 POP DUP1 PUSH1 0x0 ADD SLOAD SWAP1 DUP1 PUSH1 0x1 ADD DUP1 SLOAD PUSH2 0x150 SWAP1 PUSH2 0x4FA JUMP JUMPDEST DUP1 PUSH1 0x1F ADD PUSH1 0x20 DUP1 SWAP2 DIV MUL PUSH1 0x20 ADD PUSH1 0x40 MLOAD SWAP1 DUP2 ADD PUSH1 0x40 MSTORE DUP1 SWAP3 SWAP2 SWAP1 DUP2 DUP2 MSTORE PUSH1 0x20 ADD DUP3 DUP1 SLOAD PUSH2 0x17C SWAP1 PUSH2 0x4FA JUMP JUMPDEST DUP1 ISZERO PUSH2 0x1C9 JUMPI DUP1 PUSH1 0x1F LT PUSH2 0x19E JUMPI PUSH2 0x100 DUP1 DUP4 SLOAD DIV MUL DUP4 MSTORE SWAP2 PUSH1 0x20 ADD SWAP2 PUSH2 0x1C9 JUMP JUMPDEST DUP3 ADD SWAP2 SWAP1 PUSH1 0x0 MSTORE PUSH1 0x20 PUSH1 0x0 KECCAK256 SWAP1 JUMPDEST DUP2 SLOAD DUP2 MSTORE SWAP1 PUSH1 0x1 ADD SWAP1 PUSH1 0x20 ADD DUP1 DUP4 GT PUSH2 0x1AC JUMPI DUP3 SWAP1 SUB PUSH1 0x1F AND DUP3 ADD SWAP2 JUMPDEST POP POP POP POP POP SWAP1 POP DUP3 JUMP JUMPDEST PUSH1 0x0 SLOAD DUP2 JUMP JUMPDEST PUSH1 0x0 PUSH1 0x40 MLOAD SWAP1 POP SWAP1 JUMP JUMPDEST PUSH1 0x0 DUP1 REVERT JUMPDEST PUSH1 0x0 DUP1 REVERT JUMPDEST PUSH1 0x0 DUP1 REVERT JUMPDEST PUSH1 0x0 DUP1 REVERT JUMPDEST PUSH1 0x0 PUSH1 0x1F NOT PUSH1 0x1F DUP4 ADD AND SWAP1 POP SWAP2 SWAP1 POP JUMP JUMPDEST PUSH32 0x4E487B7100000000000000000000000000000000000000000000000000000000 PUSH1 0x0 MSTORE PUSH1 0x41 PUSH1 0x4 MSTORE PUSH1 0x24 PUSH1 0x0 REVERT JUMPDEST PUSH2 0x240 DUP3 PUSH2 0x1F7 JUMP JUMPDEST DUP2 ADD DUP2 DUP2 LT PUSH8 0xFFFFFFFFFFFFFFFF DUP3 GT OR ISZERO PUSH2 0x25F JUMPI PUSH2 0x25E PUSH2 0x208 JUMP JUMPDEST JUMPDEST DUP1 PUSH1 0x40 MSTORE POP POP POP JUMP JUMPDEST PUSH1 0x0 PUSH2 0x272 PUSH2 0x1D9 JUMP JUMPDEST SWAP1 POP PUSH2 0x27E DUP3 DUP3 PUSH2 0x237 JUMP JUMPDEST SWAP2 SWAP1 POP JUMP JUMPDEST PUSH1 0x0 PUSH8 0xFFFFFFFFFFFFFFFF DUP3 GT ISZERO PUSH2 0x29E JUMPI PUSH2 0x29D PUSH2 0x208 JUMP JUMPDEST JUMPDEST PUSH2 0x2A7 DUP3 PUSH2 0x1F7 JUMP JUMPDEST SWAP1 POP PUSH1 0x20 DUP2 ADD SWAP1 POP SWAP2 SWAP1 POP JUMP JUMPDEST DUP3 DUP2 DUP4 CALLDATACOPY PUSH1 0x0 DUP4 DUP4 ADD MSTORE POP POP POP JUMP JUMPDEST PUSH1 0x0 PUSH2 0x2D6 PUSH2 0x2D1 DUP5 PUSH2 0x283 JUMP JUMPDEST PUSH2 0x268 JUMP JUMPDEST SWAP1 POP DUP3 DUP2 MSTORE PUSH1 0x20 DUP2 ADD DUP5 DUP5 DUP5 ADD GT ISZERO PUSH2 0x2F2 JUMPI PUSH2 0x2F1 PUSH2 0x1F2 JUMP JUMPDEST JUMPDEST PUSH2 0x2FD DUP5 DUP3 DUP6 PUSH2 0x2B4 JUMP JUMPDEST POP SWAP4 SWAP3 POP POP POP JUMP JUMPDEST PUSH1 0x0 DUP3 PUSH1 0x1F DUP4 ADD SLT PUSH2 0x31A JUMPI PUSH2 0x319 PUSH2 0x1ED JUMP JUMPDEST JUMPDEST DUP2 CALLDATALOAD PUSH2 0x32A DUP5 DUP3 PUSH1 0x20 DUP7 ADD PUSH2 0x2C3 JUMP JUMPDEST SWAP2 POP POP SWAP3 SWAP2 POP POP JUMP JUMPDEST PUSH1 0x0 DUP2 SWAP1 POP SWAP2 SWAP1 POP JUMP JUMPDEST PUSH2 0x346 DUP2 PUSH2 0x333 JUMP JUMPDEST DUP2 EQ PUSH2 0x351 JUMPI PUSH1 0x0 DUP1 REVERT JUMPDEST POP JUMP JUMPDEST PUSH1 0x0 DUP2 CALLDATALOAD SWAP1 POP PUSH2 0x363 DUP2 PUSH2 0x33D JUMP JUMPDEST SWAP3 SWAP2 POP POP JUMP JUMPDEST PUSH1 0x0 DUP1 PUSH1 0x40 DUP4 DUP6 SUB SLT ISZERO PUSH2 0x380 JUMPI PUSH2 0x37F PUSH2 0x1E3 JUMP JUMPDEST JUMPDEST PUSH1 0x0 DUP4 ADD CALLDATALOAD PUSH8 0xFFFFFFFFFFFFFFFF DUP2 GT ISZERO PUSH2 0x39E JUMPI PUSH2 0x39D PUSH2 0x1E8 JUMP JUMPDEST JUMPDEST PUSH2 0x3AA DUP6 DUP3 DUP7 ADD PUSH2 0x305 JUMP JUMPDEST SWAP3 POP POP PUSH1 0x20 PUSH2 0x3BB DUP6 DUP3 DUP7 ADD PUSH2 0x354 JUMP JUMPDEST SWAP2 POP POP SWAP3 POP SWAP3 SWAP1 POP JUMP JUMPDEST PUSH1 0x0 PUSH1 0x20 DUP3 DUP5 SUB SLT ISZERO PUSH2 0x3DB JUMPI PUSH2 0x3DA PUSH2 0x1E3 JUMP JUMPDEST JUMPDEST PUSH1 0x0 PUSH2 0x3E9 DUP5 DUP3 DUP6 ADD PUSH2 0x354 JUMP JUMPDEST SWAP2 POP POP SWAP3 SWAP2 POP POP JUMP JUMPDEST PUSH2 0x3FB DUP2 PUSH2 0x333 JUMP JUMPDEST DUP3 MSTORE POP POP JUMP JUMPDEST PUSH1 0x0 DUP2 MLOAD SWAP1 POP SWAP2 SWAP1 POP JUMP JUMPDEST PUSH1 0x0 DUP3 DUP3 MSTORE PUSH1 0x20 DUP3 ADD SWAP1 POP SWAP3 SWAP2 POP POP JUMP JUMPDEST PUSH1 0x0 JUMPDEST DUP4 DUP2 LT ISZERO PUSH2 0x43B JUMPI DUP1 DUP3 ADD MLOAD DUP2 DUP5 ADD MSTORE PUSH1 0x20 DUP2 ADD SWAP1 POP PUSH2 0x420 JUMP JUMPDEST PUSH1 0x0 DUP5 DUP5 ADD MSTORE POP POP POP POP JUMP JUMPDEST PUSH1 0x0 PUSH2 0x452 DUP3 PUSH2 0x401 JUMP JUMPDEST PUSH2 0x45C DUP2 DUP6 PUSH2 0x40C JUMP JUMPDEST SWAP4 POP PUSH2 0x46C DUP2 DUP6 PUSH1 0x20 DUP7 ADD PUSH2 0x41D JUMP JUMPDEST PUSH2 0x475 DUP2 PUSH2 0x1F7 JUMP JUMPDEST DUP5 ADD SWAP2 POP POP SWAP3 SWAP2 POP POP JUMP JUMPDEST PUSH1 0x0 PUSH1 0x40 DUP3 ADD SWAP1 POP PUSH2 0x495 PUSH1 0x0 DUP4 ADD DUP6 PUSH2 0x3F2 JUMP JUMPDEST DUP2 DUP2 SUB PUSH1 0x20 DUP4 ADD MSTORE PUSH2 0x4A7 DUP2 DUP5 PUSH2 0x447 JUMP JUMPDEST SWAP1 POP SWAP4 SWAP3 POP POP POP JUMP JUMPDEST PUSH1 0x0 PUSH1 0x20 DUP3 ADD SWAP1 POP PUSH2 0x4C5 PUSH1 0x0 DUP4 ADD DUP5 PUSH2 0x3F2 JUMP JUMPDEST SWAP3 SWAP2 POP POP JUMP JUMPDEST PUSH32 0x4E487B7100000000000000000000000000000000000000000000000000000000 PUSH1 0x0 MSTORE PUSH1 0x22 PUSH1 0x4 MSTORE PUSH1 0x24 PUSH1 0x0 REVERT JUMPDEST PUSH1 0x0 PUSH1 0x2 DUP3 DIV SWAP1 POP PUSH1 0x1 DUP3 AND DUP1 PUSH2 0x512 JUMPI PUSH1 0x7F DUP3 AND SWAP2 POP JUMPDEST PUSH1 0x20 DUP3 LT DUP2 SUB PUSH2 0x525 JUMPI PUSH2 0x524 PUSH2 0x4CB JUMP JUMPDEST JUMPDEST POP SWAP2 SWAP1 POP JUMP JUMPDEST PUSH1 0x0 DUP2 SWAP1 POP DUP2 PUSH1 0x0 MSTORE PUSH1 0x20 PUSH1 0x0 KECCAK256 SWAP1 POP SWAP2 SWAP1 POP JUMP JUMPDEST PUSH1 0x0 PUSH1 0x20 PUSH1 0x1F DUP4 ADD DIV SWAP1 POP SWAP2 SWAP1 POP JUMP JUMPDEST PUSH1 0x0 DUP3 DUP3 SHL SWAP1 POP SWAP3 SWAP2 POP POP JUMP JUMPDEST PUSH1 0x0 PUSH1 0x8 DUP4 MUL PUSH2 0x58D PUSH32 0xFFFFFFFFFFFFFFFFFFFFFFFFFFFFFFFFFFFFFFFFFFFFFFFFFFFFFFFFFFFFFFFF DUP3 PUSH2 0x550 JUMP JUMPDEST PUSH2 0x597 DUP7 DUP4 PUSH2 0x550 JUMP JUMPDEST SWAP6 POP DUP1 NOT DUP5 AND SWAP4 POP DUP1 DUP7 AND DUP5 OR SWAP3 POP POP POP SWAP4 SWAP3 POP POP POP JUMP JUMPDEST PUSH1 0x0 DUP2 SWAP1 POP SWAP2 SWAP1 POP JUMP JUMPDEST PUSH1 0x0 PUSH2 0x5D4 PUSH2 0x5CF PUSH2 0x5CA DUP5 PUSH2 0x333 JUMP JUMPDEST PUSH2 0x5AF JUMP JUMPDEST PUSH2 0x333 JUMP JUMPDEST SWAP1 POP SWAP2 SWAP1 POP JUMP JUMPDEST PUSH1 0x0 DUP2 SWAP1 POP SWAP2 SWAP1 POP JUMP JUMPDEST PUSH2 0x5EE DUP4 PUSH2 0x5B9 JUMP JUMPDEST PUSH2 0x602 PUSH2 0x5FA DUP3 PUSH2 0x5DB JUMP JUMPDEST DUP5 DUP5 SLOAD PUSH2 0x55D JUMP JUMPDEST DUP3 SSTORE POP POP POP POP JUMP JUMPDEST PUSH1 0x0 SWAP1 JUMP JUMPDEST PUSH2 0x617 PUSH2 0x60A JUMP JUMPDEST PUSH2 0x622 DUP2 DUP5 DUP5 PUSH2 0x5E5 JUMP JUMPDEST POP POP POP JUMP JUMPDEST JUMPDEST DUP2 DUP2 LT ISZERO PUSH2 0x646 JUMPI PUSH2 0x63B PUSH1 0x0 DUP3 PUSH2 0x60F JUMP JUMPDEST PUSH1 0x1 DUP2 ADD SWAP1 POP PUSH2 0x628 JUMP JUMPDEST POP POP JUMP JUMPDEST PUSH1 0x1F DUP3 GT ISZERO PUSH2 0x68B JUMPI PUSH2 0x65C DUP2 PUSH2 0x52B JUMP JUMPDEST PUSH2 0x665 DUP5 PUSH2 0x540 JUMP JUMPDEST DUP2 ADD PUSH1 0x20 DUP6 LT ISZERO PUSH2 0x674 JUMPI DUP2 SWAP1 POP JUMPDEST PUSH2 0x688 PUSH2 0x680 DUP6 PUSH2 0x540 JUMP JUMPDEST DUP4 ADD DUP3 PUSH2 0x627 JUMP JUMPDEST POP POP JUMPDEST POP POP POP JUMP JUMPDEST PUSH1 0x0 DUP3 DUP3 SHR SWAP1 POP SWAP3 SWAP2 POP POP JUMP JUMPDEST PUSH1 0x0 PUSH2 0x6AE PUSH1 0x0 NOT DUP5 PUSH1 0x8 MUL PUSH2 0x690 JUMP JUMPDEST NOT DUP1 DUP4 AND SWAP2 POP POP SWAP3 SWAP2 POP POP JUMP JUMPDEST PUSH1 0x0 PUSH2 0x6C7 DUP4 DUP4 PUSH2 0x69D JUMP JUMPDEST SWAP2 POP DUP3 PUSH1 0x2 MUL DUP3 OR SWAP1 POP SWAP3 SWAP2 POP POP JUMP JUMPDEST PUSH2 0x6E0 DUP3 PUSH2 0x401 JUMP JUMPDEST PUSH8 0xFFFFFFFFFFFFFFFF DUP2 GT ISZERO PUSH2 0x6F9 JUMPI PUSH2 0x6F8 PUSH2 0x208 JUMP JUMPDEST JUMPDEST PUSH2 0x703 DUP3 SLOAD PUSH2 0x4FA JUMP JUMPDEST PUSH2 0x70E DUP3 DUP3 DUP6 PUSH2 0x64A JUMP JUMPDEST PUSH1 0x0 PUSH1 0x20 SWAP1 POP PUSH1 0x1F DUP4 GT PUSH1 0x1 DUP2 EQ PUSH2 0x741 JUMPI PUSH1 0x0 DUP5 ISZERO PUSH2 0x72F JUMPI DUP3 DUP8 ADD MLOAD SWAP1 POP JUMPDEST PUSH2 0x739 DUP6 DUP3 PUSH2 0x6BB JUMP JUMPDEST DUP7 SSTORE POP PUSH2 0x7A1 JUMP JUMPDEST PUSH1 0x1F NOT DUP5 AND PUSH2 0x74F DUP7 PUSH2 0x52B JUMP JUMPDEST PUSH1 0x0 JUMPDEST DUP3 DUP2 LT ISZERO PUSH2 0x777 JUMPI DUP5 DUP10 ADD MLOAD DUP3 SSTORE PUSH1 0x1 DUP3 ADD SWAP2 POP PUSH1 0x20 DUP6 ADD SWAP5 POP PUSH1 0x20 DUP2 ADD SWAP1 POP PUSH2 0x752 JUMP JUMPDEST DUP7 DUP4 LT ISZERO PUSH2 0x794 JUMPI DUP5 DUP10 ADD MLOAD PUSH2 0x790 PUSH1 0x1F DUP10 AND DUP3 PUSH2 0x69D JUMP JUMPDEST DUP4 SSTORE POP JUMPDEST PUSH1 0x1 PUSH1 0x2 DUP9 MUL ADD DUP9 SSTORE POP POP POP JUMPDEST POP POP POP POP POP POP JUMP INVALID LOG2 PUSH5 0x6970667358 0x22 SLT KECCAK256 DUP5 PUSH9 0x1DE4C03F8CC5230DC5 PUSH32 0xD3D1E9F50F744E6142C92A0D1012AD170131FF6664736F6C6343000812003300 "
				},
				"gasEstimates": {
					"creation": {
						"codeDepositCost": "403000",
						"executionCost": "436",
						"totalCost": "403436"
					},
					"external": {
						"addPerson(string,uint256)": "infinite",
						"favNo()": "2451",
						"people(uint256)": "infinite"
					}
				},
				"methodIdentifiers": {
					"addPerson(string,uint256)": "6f760f41",
					"favNo()": "bae9c9a8",
					"people(uint256)": "9e7a13ad"
				}
			},
			"storageLayout": {
				"storage": [
					{
						"astId": 3,
						"contract": "array.sol:SimpleStorage",
						"label": "favNo",
						"offset": 0,
						"slot": "0",
						"type": "t_uint256"
					},
					{
						"astId": 12,
						"contract": "array.sol:SimpleStorage",
						"label": "people",
						"offset": 0,
						"slot": "1",
						"type": "t_array(t_struct(People)8_storage)dyn_storage"
					}
				],
				"types": {
					"t_array(t_struct(People)8_storage)dyn_storage": {
						"base": "t_struct(People)8_storage",
						"encoding": "dynamic_array",
						"label": "struct SimpleStorage.People[]",
						"numberOfBytes": "32"
					},
					"t_string_storage": {
						"encoding": "bytes",
						"label": "string",
						"numberOfBytes": "32"
					},
					"t_struct(People)8_storage": {
						"encoding": "inplace",
						"label": "struct SimpleStorage.People",
						"members": [
							{
								"astId": 5,
								"contract": "array.sol:SimpleStorage",
								"label": "favNo",
								"offset": 0,
								"slot": "0",
								"type": "t_uint256"
							},
							{
								"astId": 7,
								"contract": "array.sol:SimpleStorage",
								"label": "name",
								"offset": 0,
								"slot": "1",
								"type": "t_string_storage"
							}
						],
						"numberOfBytes": "64"
					},
					"t_uint256": {
						"encoding": "inplace",
						"label": "uint256",
						"numberOfBytes": "32"
					}
				}
			},
			"userdoc": {
				"kind": "user",
				"methods": {},
				"version": 1
			}
		}
	}
}